:020000041000EA
:1000000000B5324B212058609868022188439860DF
:10001000D860186158612E4B002199600221596106
:100020000121F02299502B49196001219960352056
:1000300000F044F80222904214D00621196600F024
:1000400034F8196E01211966002018661A6600F04E
:100050002CF8196E196E196E052000F02FF8012189
:100060000842F9D1002199601B49196000215960AB
:100070001A491B48016001219960EB211966A021F2
:10008000196600F012F800219960164914480160C1
:100090000121996001BC002800D000471248134993
:1000A000086003C880F30888084703B5996A0420EC
:1000B0000142FBD001200142F8D103BD02B5186610
:1000C0001866FFF7F2FF186E186E02BD00000240BE
:1000D000000000180000070000035F00212200005C
:1000E000F4000018222000A00001001008ED00E03C
:1000F00000000000000000000000000074B24E7A12
:1001000000200420F7010010C3010010C5010010F9
:10011000C1010010C1010010C1010010C101001097
:10012000C1010010C1010010C1010010C701001081
:10013000C1010010C1010010C9010010CB01001065
:10014000CD010010CD010010CD010010CD01001037
:10015000CD010010CD010010CD010010CD01001027
:10016000CD010010CD010010CD010010CD01001017
:10017000CD010010CD010010CD010010CD01001007
:10018000CD010010CD010010CD010010CD010010F7
:10019000CD010010CD010010CD010010CD010010E7
:1001A000CD010010CD010010CD010010CD010010D7
:1001B000CD010010CD010010CD010010CD010010C7
:1001C00000BE00BE00BE00BE00BE00BE00F04BF888
:1001D000103800BEF2EB88718C610010B061001025
:1001E0003402001090A31AE700202149086006C8D5
:1001F00081F3088810471F48006800282FD10DA4FC
:100200000ECC002902D000F012F8F9E71A491B4A77
:10021000002000E001C19142FCD1194988471949E9
:1002200088471949884700BEFDE701C901C29A42C3
:10023000FBD37047B0610010C0000020C40A00204A
:10024000B46B00100000042000000420B46B001008
:1002500000100420001004200000000070470B482C
:1002600003F07AF80047EFF30580C0B27047000052
:1002700008ED00E0000000D0C80A0020FC0E0020BD
:10028000611D0010290400101D1D001057560000AC
:1002900006005250ABB360536C5F00100600525022
:1002A000861C03027C5F0010060052505422A29D5F
:1002B000905F001005005250DE65F468B46B0010CA
:1002C000F8B5C0460448054B10B5834203D0044B33
:1002D000002B00D0984710BDC40A0020C40A00209B
:1002E0000000000006480749091A8B10C90FC918F9
:1002F00010B5491003D0044B002B00D0984710BD17
:10030000C40A0020C40A00200000000010B5074CF9
:100310002378002B09D1FFF7D5FF054B002B02D026
:10032000044800E000BF0123237010BDC80B00206B
:100330000000000050500010054B10B5002B03D0FA
:100340000449054800E000BFFFF7CCFF10BDC046E0
:1003500000000000CC0B00205050001010B52E4BB8
:100360001B68002B29D02C4B1B68D8170F210A00C3
:100370000240D21812115200284C145F020F981834
:100380000140891A0C41012108002040214237D048
:10039000D0221206802189045161002836D0D02253
:1003A00012060421516101331B4A13609F2B02DDA9
:1003B000130000221A60012010BD1949194801F0EC
:1003C000ECFB0028F7D0154BE0221A80002306E052
:1003D0005A1C52001149E020505201335BB2072BE6
:1003E0000ADC0F4A12781A41D207F1D55A1C520082
:1003F0000A4900205052F0E7084B00225A82B2E727
:10040000D0221206802189049161C6E7D02212060B
:1004100004219161C7E7C046B00C0020980C002071
:10042000E10C0020E40C002010B58CB0192000F085
:1004300091F8D024240680239B046362022000F0FC
:1004400089F80423636201220021022000F068F889
:1004500004F070F800F0D4F80300202201211E48B7
:1004600001F084FB00F046FE06AB029300230193EB
:100470001A4B00931A4A01235B4200F009FF00283F
:1004800023D03E2003F0E4FF642004F057F800B2CC
:1004900003E0642004F052F800B2431CF4D0C0B270
:1004A00017236B4418700F4B1B5C68229343F0D0EA
:1004B00003F0CEFF17216944074801F069FB0028CB
:1004C000E7D1094803F0F8FFE3E7084803F0F4FF39
:1004D00001200CB010BDC046E40C00205D030010EC
:1004E0001EFBFFFF89600010645000105050001088
:1004F00010B58300084A944663441C684022624059
:10050000C02414408022520113431C60C000034BDE
:100510009C466044416010BD04C001400040014061
:1005200080000B4B9C46604400290DD00823002A14
:100530000CD004221343026853400C221340802243
:1005400052011043036070470023F0E70022F1E7F7
:1005500004C0014010B501238340D02212069362EB
:1005600093610521FFF7C4FF10BD0000EFF3108079
:1005700072B6034B1B68002BFBD0BFF35F8F704735
:100580002C0100D0BFF35F8F024B00221A6080F372
:10059000108870472C0100D0F8B506000C0015003B
:1005A000FFF7E4FFE308F718F15C0722224001237C
:1005B00093400B4205D1DBB20B433B70FFF7E2FFE8
:1005C000F8BD2100280001F047FC0000034B1B6828
:1005D00002201840431E9841C0B2704700C0064038
:1005E00000231F2B08D8054A9A189200BFF35F8F8B
:1005F000002111600133F4E77047C0464000003429
:10060000054A1078431CDBB21370172B02D9130074
:1006100010221A707047C046B0010020074B9B683B
:10062000103080001950BFF35F8FBFF35F8F044B12
:100630000021196082F310887047C04600ED00E089
:10064000240100D010B5091A0B1F0A4A94466144D0
:10065000094A914208D8DA0706D45B105B055B0DA6
:100660000648184380B210BD054B064A992106483A
:1006700001F058FBFC070000FE0F000000E0FFFF48
:100680007450001094520010A450001010B5091AB4
:1006900004394C08090B08D14905490D064A114394
:1006A0000180064B2343438010BD054B054AA12121
:1006B000054801F037FBC04600F0FFFF00F8FFFFE0
:1006C000EC500010A0520010A450001001238340F1
:1006D000034A10681840431E9841C0B27047C04694
:1006E00000E100E0002904D0034B1860034B1860C0
:1006F0007047034B1860FBE780E200E000E100E098
:1007000080E100E010B5012383401800FFF7EAFF05
:1007100010BD0000024B9B6810308000C05870472D
:1007200000ED00E070B504000D00EFF3108672B626
:100730000C4B1B68002BFBD0BFF35F8F2000FFF733
:10074000E9FF094B984201D0A84205D132002900A7
:100750002000FFF763FF70BD044B054A7C2105486C
:1007600001F0E0FA240100D0CD010010FC5000108F
:1007700078520010A4500010F0B5CE46474680B520
:1007800083B006000D00EFF3108872B6564B1B685D
:10079000002BFBD0BFF35F8F544B9A6834001034AA
:1007A000A300D758524B9F4207D0AF4200D199E0E7
:1007B0000197504BFB1A2F2B09D9424639003000C4
:1007C000FFF72CFF03B00CBC90469946F0BD3000FB
:1007D000FFF77CFF814600213000FFF793FFBFF356
:1007E0005F8FFFF740FD002801D0844211D1012323
:1007F000019C9C430022A368AB4212D00622A25661
:10080000002A0DDB53009B189B002200394CE41892
:10081000F1E72C21384B394AFF31394801F082FA8F
:100820002200AB4257D106256557002D39DB6B00FE
:100830005B199A002F4B9B189A68A260DA79E271D3
:1008400006229A56A2719B795BB2002B10DABD206A
:100850000002A0806B005B199B00264AD318294A2E
:1008600011789971157049463000FFF74BFFA4E7E6
:10087000201D6B005B199B001E4A9B181A1D9B884C
:10088000D90A1C2907D159054915023149005118C7
:10089000FFF7D8FEDDE71C4B1C4AA721184801F0E2
:1008A00041FA002812D1002A0ED0FF239371184B71
:1008B0009380144A1378A371164B0E49641A64414D
:1008C00063431B0D1370CEE7094FF2E7201D124959
:1008D000FFF7DCFEC7E76021104B084AFF310848EC
:1008E00001F020FA024F68E7240100D000ED00E09B
:1008F000CD010010B401002010520010C8520010A9
:10090000A4500010E20C0020F8510010B852001062
:1009100000BDFFFFAAAA0000EE0100203452001023
:10092000F8B50400012606432D4BF31A2F2B28D8C7
:10093000FFF799FC00282BD0EFF3108772B6294BF4
:100940001B68002BFBD0BFF35F8F274D220024498B
:10095000521A524155432D0D6DB2244B9B688000B5
:100960001B58B3421BD00022032A32D853009B18D5
:100970009B001B49CB189B795BB2AB421FD0013265
:10098000F2E7C2211A4B1B4A49001B4801F0CAF981
:1009900088211A4B174AFF31174801F0C3F9134B4E
:1009A0009B68174A1A50174B1A78A2711D70BFF333
:1009B0005F8F0C4B00221A6087F31088F8BD080087
:1009C0005300991889004118FF268E710E4A8A80BB
:1009D000E9E7CC210D4B074A4900074801F0A2F98D
:1009E000B4010020240100D0AAAA000000ED00E01C
:1009F0003C520010DC520010A45000106452001051
:100A0000CD010010E20C002000BDFFFF705200106D
:100A10000022044B02E0044902C30132072AFAD93A
:100A20007047C04600E400E080808080024B9C4616
:100A300061448900016070474000003410B50C002B
:100A4000CB68834207D108000B699847002809D07A
:100A50002068616810BD9621054B064A490006488A
:100A600001F060F90023E36000200021F2E7C046B6
:100A7000F8520010205600100C53001070B50500FD
:100A80000C00080000F096FC200000F09DFD0849D5
:100A9000200000F0DDFCFFF7B3FD064B9C466044F0
:100AA000800068602C75A400034BE55070BDC04603
:100AB000910D001040000034B40C002010B5002946
:100AC00022D003681B7B99421ED8174B9C46614479
:100AD000090183689C4661440C684968002A19D062
:100AE00003681B7B9A4215D883680F48844662448A
:100AF00012019A1810685368020001208B4201D835
:100B00000ED00020C0B210BD084B094A3B21094855
:100B100001F008F9054B064A3B21064801F002F9AD
:100B2000A242EFD8EDE7C046FFFFFF0F4C53001085
:100B3000B45500100C53001010B500291ED0037BD3
:100B400099421BD84B005B18033B0468A4466344DE
:100B5000002919D0002A1DD0914221D0002A25D089
:100B6000047BA24222D80468500080180338201861
:100B70008170197800291FD11A7010BD104B114ACD
:100B80006821114801F0CEF8104B114A6F310E4820
:100B900001F0C8F80F4B0E4A70210B4801F0C2F863
:100BA0000D4B0B4A7121084801F0BCF8044B054A73
:100BB0006821054801F0B6F841701A70DDE7C046BB
:100BC00080530010745500109C530010F053001017
:100BD00080550010FC5300100854001070B506003A
:100BE0000D001400002914D0002A14D08068736806
:100BF0009847002806D0220029003000FFF79CFF0C
:100C0000280007E02A0021003000FFF795FF2000B0
:100C100000E0100070BD0800FCE70000F0B583B0F4
:100C20000500009201930AAB1C780BAB1F78002CD7
:100C300026D003685A7B944207D10123002B19D197
:100C4000002C3BD1200003B0F0BD002C0CD01A7B4F
:100C5000944209D81A6863001B19033BD3189B7888
:100C6000002BEBD00123E9E73E4B3F4A68213F4888
:100C700001F058F83E4B3F4A65213F4801F052F8D9
:100C800003689C7B002CDBD012D01A7B94420FD8D7
:100C900062001219033A19688C46624451789973BC
:100CA000002900D1D9730023937053701370C7E7E4
:100CB0002C4B2D4A68212D4801F034F8002C3AD0F5
:100CC0002B681B7B9C4236D82C4BE3181B01AA686F
:100CD00094466344009A1A60019A5A60089A9A608E
:100CE000099ADA602E68002C2BD030D0337B9C42DE
:100CF0002DD863001B19033B3268944663440022DD
:100D00009A705A701A70717B22003000FFF766FFEC
:100D10007073844200D095E7287D009A019B00F013
:100D2000DFFB061E01D0002F17D00C9B002B00D13B
:100D300088E71E7086E7124B124A3B210E4800F0EE
:100D4000F1FF114B114AA521084800F0EBFF054BBC
:100D5000054A6821054800F0E5FF2868210000F0F9
:100D6000E7FDE2E780530010745500109C5300101B
:100D700020540010EC5500100C530010FFFFFF0F23
:100D80004C530010B4550010085300109455001037
:100D9000F0B5DE4657464E464546E0B58BB0099065
:100DA000002308938200B34BD658370052E0B24B71
:100DB000B24A3F21B24800F0B5FFB24BB24A3B21E4
:100DC000B24800F0AFFF002901D1002869D100210D
:100DD000404600F0A3FDA04219D12A686B68069234
:100DE0000793AB689846EB689A464346002B14D0AD
:100DF000002C18D03B681B7B9C4214D8631EFA68F9
:100E0000D35C08931B0218433861002015E0A04B07
:100E1000A04A8C219D4800F085FF9F4B9D4A902160
:100E20009A4800F07FFF974B9C4A4021974800F07A
:100E300079FF00239A46984600207B68BFF35F8FB6
:100E400000221A6086F310884346002B32D1002816
:100E500000D107E100F0BAFA02000B1EA7DB002068
:100E60000021069007917868EFF3108672B601684A
:100E70000029FCD0BFF35F8F396888464C7B002C7B
:100E8000D7D09AD0097B8C4297D8854965182D0117
:100E9000B9688C46654428686968801A99410029B8
:100EA00091DD2A686B68099800F01AFB00239A46C6
:100EB0009846C2E7089B1B022343994651461800F7
:100EC000C04705000E007A68EFF3108B72B6136806
:100ED00059424B41D9B2002BF9D1BFF35F8F002E9D
:100EE00026DB002E52DD3B69002B53D04B4572D1DF
:100EF00000F06CFA02000B1E73DB0100180052199F
:100F00007341984202D804D1914202D9012252423F
:100F1000D317002B6BDB0021049101310391029464
:100F200051460191414600913800FFF777FE49E0B4
:100F30003B69002BD5D04B451CD1069A079B10006E
:100F40001900521BB341994202D804D1904202D9F0
:100F500001225242D317002B12DB002104910131F0
:100F60000391029451460191414600913800FFF7E8
:100F700055FE27E04B4B474A9F21444800F0D2FEE4
:100F80003D4B3E4A3F213E4800F0CCFE002E01D1B1
:100F9000002DA8D13A68002C45D0537B9C422CD11F
:100FA000012100293FD1D37B002B42D1D473002CE7
:100FB00052D03B681B7B9C424ED8FA68013C135DC3
:100FC0000133135500233B617A68BFF35F8F1360D1
:100FD0008BF310883EE7334B2E4AA2212B4800F0BA
:100FE000A1FE254B254A3F21254800F09BFE224BC0
:100FF000224A3F21224800F095FE002C0DD0137BA1
:101000009C420AD863001B19033B10688446634462
:101010009B78002BC5D00121C3E7234B234A6821CD
:10102000234800F07FFE234B234AF621204800F09E
:1010300079FE002B0AD0117B8B4207D85900CB18C0
:10104000033B11688C4663445C70AFE7164B174A4C
:101050006821174800F066FE0A4B104A40210B48F1
:1010600000F060FE0BB03CBC90469946A246AB46F1
:10107000F0BDC046B40C0020485400105C55001070
:10108000645400104C530010B45500100C53001061
:10109000B454001004560010CC540010C055001079
:1010A000FFFFFF0FD854001080530010745500103C
:1010B0009C53001014550010A455001010B50A4B95
:1010C0005B68002B04D00A210848FFF7AFFC10BD75
:1010D000054C2300064A1021206800F03FFB032145
:1010E0002000FFF7CBFCEEE7FC010020C80C00203D
:1010F000BD0A001010B5064B5B68002B01D00448F8
:1011000010BD044B044A5C21044800F00BFEC046AD
:10111000FC01002038550010D45500100C5300106D
:10112000F0B5DE4657464E464546E0B58BB08046A4
:1011300016001F00149B9A46159B994616AB1B7808
:101140009B461F2302AA9446634400221A7032E091
:10115000002809D042461268127B904204D8421EF1
:101160004146C9688A5C48E0434B444A40214448B0
:1011700000F0D8FD0798002B75D05B46002B72D08D
:101180004946D04704000D0003000B4300D171E035
:10119000002946DB00F01AF906000F1E55DB361950
:1011A0006F41B94202D804D1B04202D90126764239
:1011B000F717002F4FDB43465A68EFF3108472B6DF
:1011C000136859424B41D9B20791002BF8D1BFF3B4
:1011D0005F8F1F3302AA9446634404930023039352
:1011E00002934B4601935346009332003B00404626
:1011F000FFF714FD031EABD1020041464968BFF35F
:101200005F8F00250D6084F31088002B29D01F23E9
:1012100002A98C4663441B78002BABD11202104309
:10122000A9E732003B00361BAF41BB4202D804D1D4
:10123000B24202D901267642F717002FBBDA114BD2
:10124000114A3F21114800F06DFD0E4B0E4A3F211F
:101250000E4800F067FD0B4B0B4A3F210B4800F096
:1012600061FD012040420BB03CBC90469946A2462D
:10127000AB46F0BD0798F6E74C530010C055001080
:101280000C530010485400105C55001064540010BA
:10129000F0B585B007000C9E1100194301D1012261
:1012A0000023B7600A993161326073600B997161F4
:1012B000D81701004240140043401D00241A8D41FC
:1012C00000F084F802000B1E1ADB0100180012194E
:1012D0006B41984202D804D1914202D90122524274
:1012E000D317002B12DB0121029101960A490091CC
:1012F0003800FFF715FFF060C043C00F05B0F0BD28
:10130000064B074A3F21074800F00CFD034B044AF7
:101310003F21044800F006FD3D0A0010485400102B
:101320005C5500106454001070B5EFF305833F2046
:1013300018401038EFF3108472B6194B1B68002B5D
:10134000FBD0BFF35F8F012319008140154A516321
:10135000154A12781500C5402B4214D0114B5D6A16
:101360008300124E9B599D4206D38300104D5B595A
:101370008A430D490A7007E00A4A031D9B009958E9
:101380009950002300E00023BFF35F8F044A00213F
:10139000116084F31088002B00D0984770BDC046C0
:1013A000280100D000400540E30C0020CC0C0020B8
:1013B000180C002010B50100024A0348FFF7ECF8B2
:1013C00010BDC0463C560010E00C0020044B5B6A88
:1013D000034A906A1900536A9942F9D17047C0468E
:1013E00000400540074B5B6A8B4204D2054B5B6AA9
:1013F000FAE7044B5B6A8B4203D1024B9B6A834240
:10140000F7D370470040054070B504000D00FFF7AA
:10141000DDFF02000B0020002900801859418B429B
:1014200002D804D1824202D901204042C1170029CA
:1014300002DBFFF7D7FF70BD024B034A3F21034891
:1014400000F070FC48540010D05600106454001096
:1014500070B504000D00EFF3108672B61B4B1B68CD
:10146000002BFBD0BFF35F8F002D1CD02000FFF7B7
:1014700051F9174B83420BD019002000FFF752F9A6
:1014800001212000FFF73EF90123A340114A136018
:10149000A400114BE550BFF35F8F0C4B00221A6084
:1014A00086F3108870BDA2000B4B0021D1500122A1
:1014B000A2400A490B7893430B7005492000FFF7BF
:1014C0005BF900212000FFF71DF9E4E7280100D0B7
:1014D0002913001038600540180C0020E30C002090
:1014E000F0B5DE4600B584B00400150001921E0080
:1014F0000293FFF76BFF03958E4202D84ED18542CF
:101500004CD9EFF3108B72B6274B1B68002BFBD026
:10151000BFF35F8F254A17780125A540EBB23B4307
:101520001370234B5D63221D92000199D150A200DC
:101530002049029850501B6A2B4212D11C4B1B6C45
:101540002B4208D00020BFF35F8F174B00221A6098
:101550008BF3108823E0184B184AC121184800F07B
:10156000E1FBFFF733FF8E4214D802D1039B834285
:1015700010D80E4B1B78BB420ED00D4B1D625D6325
:101580001F2004400123A3400E4A1360074B1F7025
:101590001E38D8E70020D6E70120D4E7012004B0A8
:1015A00004BC9346F0BDC046280100D0E30C0020E7
:1015B00000400540CC0C002060560010E85600109A
:1015C0008456001080E200E010B5EFF3108472B68C
:1015D0000A4B1B68002BFBD0BFF35F8F01238340B6
:1015E000074A136207490A789A430A70BFF35F8F6C
:1015F000024B00221A6084F3108810BD280100D02D
:1016000000400540E30C002010B500291ED0037BEC
:1016100099421BD84B005B18033B0468A446634403
:10162000002919D0002A1DD0914221D0002A25D0AE
:10163000047BA24222D80468500080180338201886
:101640008170197800291FD11A7010BD104B114AF2
:101650006821114800F066FB104B114A6F310E48AB
:1016600000F060FB0F4B0E4A70210B4800F05AFB54
:101670000D4B0B4A7121084800F054FB044B054AFE
:101680006821054800F04EFB41701A70DDE7C04646
:1016900080530010B85700109C530010F0530010F6
:1016A000C4570010FC5300100854001070B5060019
:1016B0000D001400002914D0002A14D0806873682B
:1016C0009847002806D0220029003000FFF79CFF31
:1016D000280007E02A0021003000FFF795FF2000D6
:1016E00000E0100070BD0800FCE7000010B500230A
:1016F000437301338373037BC3730123027B9A42D9
:1017000014D9002B0CD0027B934209D85A00D2186E
:10171000033A01688C4662440133DBB25370EDE753
:101720000B4B0C4A68210C4800F0FCFA002A09D047
:10173000924207D8016853009A18033A8A18002386
:10174000537010BD024B034A6821034800F0EAFAC7
:1017500080530010B85700109C53001010B501734F
:1017600042608360FFF7C2FF10BD000070B5040047
:10177000081E00D170BD002934D0237B994231D896
:101780004B005B18033B2268944663445A78002A56
:10179000F0D02DD0237B9A422AD853009B18033BCC
:1017A00021688C4663445D7800215970002825D05B
:1017B000237B984222D843001B18033B21688C46A8
:1017C00063440021597001002000FFF76FFF0600FD
:1017D00029002000FFF7CAFF020031002000FFF7B8
:1017E00065FFC7E7084B094A6821094800F09AFAE3
:1017F000054B064A6821064800F094FA024B034A5A
:101800006821034800F08EFA80530010B85700108A
:101810009C53001070B505000C001600002928D05C
:101820002DD0037B99422AD84B005B18033B0268FA
:10183000944663445A78002A27D19A78002A2AD1FC
:101840001978FFF793FF0300002E03D0EA7B002AEC
:1018500027D1EC73002B37D1002C49D02B7B9C4235
:1018600046D82B6861000C19033C1C1900236370D7
:1018700070BD224B224A3821224800F053FA224BF5
:10188000224A6821224800F04DFA224B1C4A3A2194
:101890001C4800F047FA204B194A3B21194800F038
:1018A00041FA002A0AD0297B8A4207D851008A18B7
:1018B000033A29688C4662445470CAE7124B134AB3
:1018C0006821134800F02EFA002B0BD02A7B93429C
:1018D00008D843001B18033B2A689446634400223F
:1018E0009A70B9E7084B094A6821094800F01AFACA
:1018F000054B064A6821064800F014FA0457001008
:10190000D85700100C57001080530010B857001023
:101910009C5300104C5700107457001070B5040011
:101920000A00457B2900FFF775FF6073280070BD32
:1019300070B50400002966D0437B8B420ED000298D
:1019400011D0037B99420ED84B005B18033B026811
:10195000D0188378002B0CD1002055E00121FFF72F
:10196000DDFF012050E0294B294A6821294800F079
:10197000D9F9002B1FD0227B93421CD825685A002E
:10198000D318033BEA18EB5C8B421AD0002B1BD018
:10199000227B934218D85A00D318033B2268D218EE
:1019A00053788B4216D0002BF0D11B4B1B4A67217A
:1019B0001B4800F0B7F9154B154A6821154800F08F
:1019C000B1F94378137007E0104B114A68211148B0
:1019D00000F0A8F94378537000238370437001220C
:1019E0002000FFF717FF0200617B814205D0200035
:1019F000FFF75CFE6073012006E00A4B074A6D2189
:101A0000074800F08FF9002070BDC04680530010D9
:101A1000B85700109C53001070520010EC57001083
:101A20000C57001098570010F8B504000FE0E78934
:101A30000137DB19E7899F4217D1002A35D0236887
:101A4000BFF35F8F00251D6086F3108820BF2568D7
:101A5000EFF3108672B62B68002BFCD0BFF35F8FBC
:101A600025896389EB1AE5D5E1E7AF4217D3A2894F
:101A700055436368581902F0BFFB238901339BB2B9
:101A8000E289934200D9002323812368BFF35F8F4B
:101A900000221A6086F3108840BF0120F8BD074B72
:101AA000074A1921074800F03DF92368BFF35F8F0B
:101AB0000021196086F310881000EFE70458001029
:101AC000605800102058001070B5040008000EE0A7
:101AD000E18901315B18002B17D1002A36D0236829
:101AE000BFF35F8F0021196086F3108820BF216843
:101AF000EFF3108672B60B68002BFCD0BFF35F8F3C
:101B0000238965895B1BE6D5E2E7E3899D4217D807
:101B1000A28955436368591902F06EFB638901334A
:101B20009BB2E289934200D9002363812368BFF30B
:101B30005F8F00221A6086F3108840BF012070BDBD
:101B4000074B084A1921084800F0ECF82368BFF356
:101B50005F8F0021196086F310881000EFE7C04600
:101B600004580010605800102058001070B5040090
:101B70000D0016001900FEF759FF701C290002F035
:101B80001BFB6060E681A58100232381638170BD1A
:101B900010B50022FFF748FF10BD10B50022FFF777
:101BA00093FF10BD10B50400FEF72AFD01002000D0
:101BB000FEF73CFFFF232371BFF35F8F10BD10B50D
:101BC0000400FEF71DFD01002000FEF72FFFFF239C
:101BD000237100236371BFF35F8F10BD70B50400E4
:101BE0000D00062000F052FAC000290001F008FCA8
:101BF000C60908D00E4B9E4217D87F2318400130EB
:101C00003500460800E001256562A6622C3480207C
:101C10008001044300232360062000F037FA80008F
:101C2000A901891901F0ECFB70BD0026014DEBE71D
:101C3000FEFF0000FFFF0000002909D00A22064B2A
:101C40009C466044434258414000044BC252704796
:101C500080225200F3E7C0460080FCBFF40C002055
:101C600070B505000C00062000F010FA002829D0FD
:101C7000164B9D4227D08022D203154B1A60154B7C
:101C80001A60154B9B6811009943FAD10021280076
:101C9000FFF7D2FF21002800FFF7A0FF2C002C3413
:101CA000E96A60224A406E2111408022520122439B
:101CB00011600A4B2B6380239B01234310221A607F
:101CC0000323AB6470BD80221204D6E7008003407A
:101CD00000E0004000F0004000C0004001030000B0
:101CE00000BEFDE703000A4A1268002A08D0084A2D
:101CF0001068C318074A9A4206D3054A1360704712
:101D0000034A05491160F2E701204042F7E7C04667
:101D1000AC0C002000000420FC0E002010B5FFF7E2
:101D2000DFFF000010B582B00C001900002A0CD0B3
:101D3000084B002A0BD001920093230002000648B2
:101D400002F0ECFB0120FFF7CBFF044BF1E7034A65
:101D5000F1E7C0460C5900101C590010185900102A
:101D600070B52B4B2B4A1A602B4B2C4A1A602C4B0C
:101D70009A682A4B9343FAD12A4C2B4B9C4202D2AD
:101D800008CC9847F9E700F001F9234B274A1A607D
:101D9000234B9B68DB43DB01FAD1254B40229A673A
:101DA0005A671A67DA66234C09E0234B234A8321DA
:101DB0002348FFF7B7FF2000FFF7F4FE0834214B5C
:101DC0009C4209D22368002BF5D0012BEDD12000D5
:101DD000FFF7F5FE0834F2E71B4CA1681B4DC0224B
:101DE000280002F009FAA560FEF73DFA002800D0AD
:101DF00000BEFEF7F5FBFEF70BFEFFF75FF9144C94
:101E0000144B9C4202D208CC9847F9E770BDC046FB
:101E100000E00040BFCDFBFE00F00040FE7F3C0034
:101E200000C00040B00A0020C00A0020FFFFFF01F0
:101E300000F00140A80A00204C590010CC590010B5
:101E40006C590010B00A002000ED00E000000020F6
:101E5000C00A0020C40A00200FB400B583B00848AF
:101E600002F02AFB049B002B07D005A90191180062
:101E700002F032FB034802F01FFB0120FFF730FFA6
:101E8000B8590010C8590010F8B5DE4657464E46FE
:101E90004546E0B505000F0092461E000A9B9E4293
:101EA0004ED3330E994636020A9A00233000494633
:101EB00001F0E8FA80466C006419A4002E4B9C46A1
:101EC00064446368834200D260602B1FDBB29B4690
:101ED000012B3BD9C0239B012343802212011A60AE
:101EE000AB00264A9958002905D0506901F088FABC
:101EF00001300138FDD153465A0123685A40E0238E
:101F00001A4080235B0123431A605A46012A28D9CC
:101F100080239B012343802212011A6043466360A1
:101F2000424600233000494601F0ACFAAD00134BA5
:101F3000585101203CBC90469946A246AB46F8BD9C
:101F40000F4B104A2D211048FFF7ECFE012FC1D195
:101F5000C0239B01234303221A60A368DB07FCD53F
:101F6000C9E72168794003220A401A60A368012268
:101F7000BA401A42FAD0CBE700800040280C00207B
:101F8000DC5900103C5A0010F059001030B583B0F5
:101F90000C2000F021F9FEF719FB00280DD00023DA
:101FA000092B05D899002D4A2D4888500133F7E7B1
:101FB0002A4B2C4A5A6203B030BD2B4B00229A6741
:101FC00000F012F9294B01221A60274B5B6C012BA0
:101FD000FBD1274B03221A60234B9B6B012BFBD1B8
:101FE000013300930433234A0121234800F054F8BD
:101FF00005230093214A0121214800F04DF8214B8F
:102000000093002202210420FFF73EFF1E4D0095A1
:102010002B00002201210520FFF736FF104C009411
:102020002300002200210720FFF72EFF0094230049
:10203000002200210820FFF727FF0A4B009323000E
:10204000002200210920FFF71FFF00952B0000222E
:1020500000210620FFF718FFADE7C046280C00203E
:10206000006CDC021BB70000008000403CB0004068
:1020700030B00040002F685900800240008C864735
:1020800000C00240001BB700405973078000014B9D
:10209000C0587047280C0020F0B5C64600B50400B3
:1020A0000F0090461D000C2001F0AAF906003D4AE1
:1020B00042443D4B9A4243D843011B1A9901C91A25
:1020C000C90009188901404601F09AF90200103A46
:1020D00098235B009A4239D86B1E062B3CD8069B8E
:1020E000013B062B38D8069B9D423BD343461A0939
:1020F000B2423DD32D04069B1E032E432368002BC2
:102100003CDB2A4B9C424AD080256D01284B1D6048
:10211000284B1D60284A92682B009343FAD1276010
:10212000A060221DC0239B01134321221A60226854
:10213000002AFCDAE66008221A6004BC9046F0BD72
:102140001E4B1F4A11211F48FFF7ECFD1E4B1C4A76
:1021500019211C48FFF7E6FD1C4B194A1C211948A0
:10216000FFF7E0FD1A4B164A22211648FFF7DAFD69
:10217000184B134A25211348FFF7D4FD22683F234B
:102180001340BB42BDD1A3681B051B0D8342B8D1D0
:10219000E368EE22D2021340B342B2D1CDE78025EC
:1021A000AD01B3E780E84BD380F8A93200C002400C
:1021B00000E0004000F0004000C000404C5A001019
:1021C000905B0010AC5A0010F45A0010105B001025
:1021D0005C5B0010745B001080239B000343014A8A
:1021E000D362704700800540064BAA2212011A6094
:1021F0002F22DA60044B054A1A60024B5B68002B01
:10220000FBDA7047004002400060024000B0FA0074
:10221000704710B5002802D00B684968984710BD78
:10222000010000200A681378303BDBB2092B08D884
:1022300083001B185B00501C08601078C0183038F1
:10224000F0E77047F0B5DE4657464E464546E0B5E6
:1022500083B093461F000C9B9A460D9C0E9B99469B
:102260000F9B9B0703D0B8460F00060022E00192A7
:10227000A34688464E46B9460700B44207D2551CCD
:102280004B4641462020B84701342A00F5E73D007F
:102290004F465C46019B9B46B1464646B8463700D2
:1022A0002E0007E0013C551C5346185D434639009B
:1022B000B0472A00002CF5D135003E0047460F9B61
:1022C0009B0707D4100003B03CBC90469946A24639
:1022D000AB46F0BDB0464E46B9462F005D46531B97
:1022E000B342EFD2541C4B4641462020B84722004F
:1022F000F5E7F0B5CE46474680B585B0944698469A
:102300000C9D0D9C0EAB1B789946109A119B129E4A
:10231000B7071BD4002B08D0F70706D54F46002F70
:1023200002D10C37374200D0013B944208D21F2C17
:1023300006D830272F550134F7E730272F550134C1
:10234000F70703D59C4201D21F2CF6D9F70615D505
:10235000770505D4002C03D0944224D09C4222D08F
:102360000F9A102A2BD00F9A102A30D00F9A022AD7
:1023700035D01F2C02D830222A5501341F2C05D805
:102380004A46002A31D02D222A5501340396029361
:102390000194009543466246FFF754FF05B00CBC1C
:1023A00090469946F0BD621E012C06D00F9F102F5B
:1023B00001D01400D4E7023CD2E71400D0E7B20603
:1023C000D1D41F2CCFD878222A550134D1E7B206B8
:1023D000CCD51F2CCAD858222A550134C9E71F2C46
:1023E000C7D860322A550134C3E7720703D52B22C0
:1023F0002A550134CAE73207C8D520222A550134AC
:10240000C4E7F0B5DE4657464E464546E0B593B0C4
:1024100081468A46089209931CAB10CB1B789B46D9
:102420001E9D219B9846002C03D1102342469A43BF
:1024300090468023DB0046461E4042461A4212D098
:10244000002C22D000260EE03033D9B2771C0AAB24
:1024500099552900200000F0D3FFAC4216D31F2F5E
:1024600014D83E0004002900200000F0C9FFCBB2C0
:10247000092BE9D94246920605D54121C918C9B2AE
:102480000A39C9B2E2E76121F8E72700434606931B
:10249000209B05931F9B049303955B460293019732
:1024A0000AAB0093099B089A51464846FFF721FF63
:1024B00013B03CBC90469946A246AB46F0BDF0B581
:1024C000DE4657464E464546E0B595B00890099120
:1024D0000A920B931E9E1F9C20AB1B789B46229B4F
:1024E0009946239D269B9A463300234303D11033FC
:1024F00052469A4392468023DB0057461F4052467D
:102500001A4219D0330023432DD0002714E0303372
:10251000DAB27B1C98460CABDA554A462B003000E9
:10252000210000F0AFFFA5421FD819D043461F2B52
:102530001BD8474606000C004A462B0030002100FD
:1025400000F0A0FFD3B2092BE1D95246920605D57F
:102550004122D218D2B20A3AD2B2DAE76122F8E7BF
:10256000B145E3D901E00023984653460693259BE5
:102570000593249B04934B4603935B460293434687
:1025800001930CAB00930B9B0A9A09990898FFF7EB
:10259000B0FE15B03CBC90469946A246AB46F0BD95
:1025A000F0B5DE4657464E464546E0B591B0834607
:1025B0008A460C9298461A9C08941B9D0995220005
:1025C0002B002000290001F0ECF9002800D0E5E004
:1025D00001225242D34B2000290001F0DDF90028EE
:1025E00000D0DBE001225242CF4B2000290001F055
:1025F000BDF9002800D0D1E000220023089D28006A
:10260000099E310001F0B2F9002800D0DDE0089801
:102610000999069007918023DB001E9A1A400D92BB
:102620001E9A1A4201D106231C93069807990400AA
:102630000D000A000600024300D1CDE0080D400560
:10264000400DBA4CA44660440A03120BB84B134326
:102650001F0001F0B9F9B74AB74B01F044F9B74A86
:10266000B74B01F019F904000D000022B54B300002
:10267000390001F008F9B44AB44B01F034F9020012
:102680000B002000290001F007F901F0B5F981469F
:1026900001F09AF904000D00AD4AAE4B01F023F9A8
:1026A0000022AD4B01F0F8F801F0A6F90600AB4AA4
:1026B000AB4B2000290001F016F904000D0030009A
:1026C00001F082F9A74AA84B01F00DF902000B00B6
:1026D0002000290001F0D7F804000D0002000B00D3
:1026E00001F001F90A900B91A04BF31800261F0589
:1026F00022002B002000290001F0CEF80E900F914F
:1027000022002B0000208021C90501F0BCF8040044
:102710000D000022964B0A980B9901F0C6F8002292
:10272000944B01F0B9F802000B000A980B9901F0E4
:10273000BCF80022904B01F0AFF802000B000A98A1
:102740000B9901F0B2F802000B002000290001F003
:10275000A3F802000B000E980F9901F0A6F80022D2
:10276000734B01F099F832003B0001F0BCF8060011
:102770000F0004000D00069A079B01F00DF90028D8
:102780002CD001235B429C46E1440022794B30006F
:10279000390001F08AF804000D001FE01E9B04932D
:1027A0001D9B03931C9B0293089A099B0092019323
:1027B00043460C9A5146584600F0F8F811B03CBC1C
:1027C00090469946A246AB46F0BD069580231B066F
:1027D0009C46664407961EE7002399464B466333A2
:1027E000C62B1FD804261E9B1B0527D52B00234371
:1027F00010D0624A624B0698079901F0C5F800288C
:1028000000D183E000225F4B0698079901F0AEF8F3
:1028100000287BD01C9B4B4506DD4A46981A431E78
:102820001C9303E00526DEE700231C938023DB00D6
:102830001E9A1A431E920026002399461D9B9E4213
:102840006ED29F1B02231E9A1A400A921E9A1342AE
:1028500002D0002E00D000274B46002B07D02200CC
:102860002B000698079901F020F8069007910022A6
:1028700000230898099901F079F8002800D085E034
:10288000414B1E9A1340049303971C9B0293069B93
:10289000079C0093019443460C9A5146584600F019
:1028A00085F8002E00D189E71E9B9B067AD5452529
:1028B000441C4346020051462800D8474B46DA17CD
:1028C0009B18534005220592013E04960022039274
:1028D0000A3202924A46D00F0190009343462200EA
:1028E00051465846FFF78DFD0A9B002B00D165E746
:1028F00002005F460C9E1D9D931BAB4254D2541C9C
:10290000434651462020B8472200F5E71C9B002B88
:1029100094D00D9B002B91D01C9B013B1C938DE709
:1029200000278FE7FFFFEF7FFFFFEFFF01FCFFFFB7
:102930000000F03FFB799F501344D33FB3C8608B36
:10294000288AC63F0000F83F61436F63A787D23FE4
:1029500071A379094F930A400000E03F1655B5BBBB
:10296000B16B0240EF39FAFE422EE63FFF03000052
:1029700000002C4000002440000018402D431CEBB8
:10298000E2361A3F80842E41FFF7FFFF069C079D29
:102990002200290080200006844661440B00069234
:1029A00007936DE7652583E7100007E7F0B5DE467E
:1029B00057464E464546E0B595B00690079193467A
:1029C0009946209F1E9A1F9B1000190000F0E9FFF6
:1029D000002831D101225242BF4B1E981F9900F0AE
:1029E000C5FF002837D101225242BC4B1E981F99C7
:1029F00000F0D2FF00283DD10022B94B1E981F994C
:102A000000F0CAFF002850D10022B64B1E981F9933
:102A100000F0ACFF002848D1002200231E981F9927
:102A200000F0A4FF002850D100239846229B5B05AC
:102A300000D4B6E0002458E0229B0393219B02932C
:102A400003230193A84B00934B465A4607990698D7
:102A5000FFF7F8FB0EE1229B0393219B02930423D3
:102A60000193A24B00934B465A4607990698FFF7ED
:102A7000E9FBFFE00423229A1A4022990B4210D06E
:102A80009B4B002A0FD00422229903912199029195
:102A9000019200934B465A4607990698FFF7D2FBDE
:102AA000E8E0944BEDE70322EEE7229B0493219BA1
:102AB000039302971E9B1F9C009301944B465A461A
:102AC00007990698FFF76CFDD4E01E9A1F9B002023
:102AD000002100F0D8FE1E901F9101239846A5E723
:102AE0000CAB30221A55013F01341F2C01D8092F9D
:102AF000F6D81E981F9900F07FFF050000F064FFD4
:102B000002000B001E981F9900F0BDFEFA007A4BE0
:102B10009B181A685B680A920B9300F0E4FE089019
:102B2000099100F08DFF060000F04AFF02000B0043
:102B30000898099900F0A7FE0890099100226F4BB0
:102B400000F02AFF00282ED00136300000F038FFB8
:102B500002000B000A980B9900F00EFF002801D02C
:102B600001350026002F2CD1280000F02DFF020097
:102B70000B001E981F9900F086FE06000F00002231
:102B80005E4B00F0F3FE002842D100225B4B300088
:102B9000390000F001FF00283AD1EB0738D50135A4
:102BA00036E0062746E70022544B0898099900F0C2
:102BB000DDFE0028D6D1002E01D0F307D2D5013694
:102BC000D0E7AA461F2C11D8013F0A21300000F09F
:102BD00017FC651C30310CAB19550A21300000F090
:102BE0000FFC092E26D906002C00EBE7554604E021
:102BF0000CAA302111551F0001341F2C02D87B1E56
:102C0000002FF5D11F2C03D80CAB2E221A550134FE
:102C10001F2C14D80A21280000F0CAFB661C303192
:102C20000CAB19550A21280000F0C2FB051E05D087
:102C30003400EDE72B0055461C00DEE7340003238B
:102C4000229A1340012B1CD01F2C06D84346002B80
:102C500032D00CAB2D221A550134229B0393219BB9
:102C6000029301940CAB00934B465A460799069881
:102C7000FFF7E8FA15B03CBC90469946A246AB4631
:102C8000F0BD219B002B13D04346002B02D10C3307
:102C900013420FD0219B013B2193190003E00CABA1
:102CA00030221A5501348C42CED21F2CF7D9CBE7F3
:102CB0002199F8E72199F6E7229B5B0704D50CAB35
:102CC0002B221A550134C8E7229B1B07C5D50CAB34
:102CD00020221A550134C0E7FFFFEFFFFFFFEF7F0F
:102CE00065CDCD4165CDCDC1A85B0010AC5B0010BA
:102CF000A05B00109C5B0010985D00100000E03F9E
:102D0000F0B5DE4657464E464546E0B593B082469E
:102D10008B4690461193002900D1ECE200275546DE
:102D2000119B1878002800D1E8E2252809D07C1CE6
:102D300043463A005946A847119B01331193270097
:102D4000EEE70133119300241DE00B00303BDBB2B2
:102D5000092B37D92A293AD000230A93119B1A78D4
:102D60002E2A44D000239A46119A1378683BD9B290
:102D7000122900D980E08B00CB49CB589F46012314
:102D80001C4301321192119A11780B00203BD8B2EA
:102D90001028DAD88300C548C3589F4602231C4335
:102DA00001321192EFE704231C4301321192EAE74A
:102DB00008231C4301321192E5E710231C43013222
:102DC0001192E0E711A8FFF72BFA0A90C6E71C9BC7
:102DD0001A1D1C921868002804DB0A90119B01330D
:102DE0001193BBE702231C4343420A93F6E7802278
:102DF000D20014435A1C11925A781300303BDBB2B4
:102E0000092B04D92A2A07D000239A46ACE711A837
:102E1000FFF706FA8246A7E71C9B1A1D1C9218684A
:102E2000002804DB8246119B013311939CE70020AC
:102E3000F8E780235B002343511C119152786C2AE0
:102E400001D01C0018E0C0239B001C4301311191EC
:102E500012E080232343511C11915278682A01D03B
:102E60001C0009E0C0231C430131119104E08023C0
:102E70005B001C4301321192119B18780300253B23
:102E8000DAB2532A00D92CE29300894AD3589F46DC
:102E900080239B001C4301321192EDE780235B00ED
:102EA0001C4301321192E7E7782809D0582838D01E
:102EB0006F2838D0622838D010239C430A2600E0BF
:102EC0001026582833D0692803D0642801D00C225A
:102ED0009443630501D50122944369282AD06428CC
:102EE00028D0A30500D59FE0E30500D5B8E0630630
:102EF00000D4CAE01C9A111D1C911168FF220A40DF
:102F000005940A9B0493534603930296002301936E
:102F1000009243463A0059462800FFF772FA07002C
:102F200027E01026CDE70826CBE70226C9E72022B6
:102F30001443C8E7A30520D4E30550D4630666D53F
:102F40001C9A111D1C911168FF220A40D317D11839
:102F5000594005940A9B0493534603930296D20F5B
:102F60000192009143463A0059462800FFF749FA7A
:102F70000700119B01331193D2E61C9BDA1D072138
:102F80008A43110008311C91116853689C46DB1775
:102F90000C930D930C9A0D9B100048400E906246C6
:102FA00053400F930E980F990C9A0D9B801A9941DC
:102FB0000E900F9108940A9B07935346069304962C
:102FC000002305936346DA0F029200900191434675
:102FD0003A0059462800FFF772FA0700C9E71C9A21
:102FE000111D1C911268D317D118594005940A9BE2
:102FF0000493534603930296D20F019200914346E5
:103000003A0059462800FFF7FCF90700B1E723060C
:1030100005D51C9A111D1C910023D25E96E71C9ABF
:10302000111D1C91126891E71C9BDA1D07218A4330
:10303000110008311C9108940A9B0793534606938C
:103040000496002305930293136854680093019437
:1030500043463A0059462800FFF731FA070088E74F
:103060001C9A111D1C9105940A9B049353460393CB
:103070000296002301931368009343463A00594691
:103080002800FFF7BEF9070073E7230606D51C9A50
:10309000111D1C9112681204120C31E71C9A111DAB
:1030A0001C9112682CE7C046B45B0010005C001055
:1030B000445C001046281AD01C9B07330722934318
:1030C0001A0008321C9204940A9A03925246029201
:1030D0005C681B680093019443463A0059462800F7
:1030E000FFF764FC0700119B0133119318E62023BE
:1030F0001C43E1E7672801D0472802D180231B0148
:103100001C43452801D0472801D120231C431C9B88
:103110000733072293431A0008321C9204940A9A38
:103120000392524602925C681B68009301944346E6
:103130003A0059462800FFF733FA0700119B013384
:103140001193EDE502231A002240924623421FD03C
:1031500001241C9B1A1D1C927A1C91461878434628
:103160003A005946A8475346002B16D1119B01330C
:1031700011934F46D4E5561C434659462020B84784
:10318000230032005C1C9D42F5D83D001700E0E7AB
:1031900001233A002F000A9DF4E74A46A9460A9DFA
:1031A00006E0571C434659462020C84734003A00E1
:1031B000661CA542F5D84D469146D7E71C9B1A1DC3
:1031C0001C921B6899465346002B00D1013B4E468A
:1031D00001E0013613003278002A02D05A1E002B7B
:1031E000F7D14B46F21A10928023DB0026001E40D6
:1031F0001C4203D0524501D95346109302231A00B2
:1032000022400B92234205D03A0037004C46A94693
:10321000554620E03A00109B5F46B3462E0006E07C
:10322000551C434639002020B04723002A005C1C6F
:103230000A999942F4D835005E46BB46109437008F
:103240004C46A946554606E01D000134561C43462F
:103250005946C84732002078002804D0002FF4D007
:103260006B1E002DF0D117004D460B9B002B03D198
:10327000119B0133119353E50A9F109B06E0561CE6
:10328000434659462020A847230032005C1C9F4239
:10329000F5D81700ECE721231C431C9B1A1D1C9238
:1032A0001B6800930594082304935346039310234B
:1032B00002930023019343463A0059462800FFF742
:1032C000A0F80700119B0133119329E57C1C4346AC
:1032D0003A0059462520A847119B01331193270036
:1032E0001EE57C1C43463A005946A847119B013312
:1032F0001193270014E50B4B9A460FE5AA46474564
:103300000DD343465A1E434659460020D047380045
:1033100013B03CBC90469946A246AB46F0BD3A007D
:10332000F1E7C0461122001000B585B0029003916C
:103330000121009313004A4202A90248FFF7E0FC72
:1033400005B000BD1322001001480421014B1847AD
:10335000300200207933001010B5010018231B88BB
:1033600014221088984710BD10B5010018231B883F
:1033700016221088984710BDF0B5C64600B5070064
:103380000E0000250123984600E00135B5420AD21F
:10339000AC003C192068FFF7DFFF20600028F4D163
:1033A00000239846F1E7404604BC9046F0BD00007B
:1033B000124A936F9B0815D29066D166002905D0FA
:1033C000FFE7FFE7FFE7516F106F704704B58021FB
:1033D0000906C2175140002800D0C84301F020FE62
:1033E000002104BDF0B5146E556E576F166FFFF7D0
:1033F000E3FF1466556657671667F0BD000000D0FE
:10340000114A936F9B0813D210665166002905D0AC
:10341000FFE7FFE7FFE7516F106F704704B5002823
:1034200001D00020C04301F0FBFD002104BDC046D7
:10343000F0B5146E556E576F166FFFF7E5FF146603
:10344000556657671667F0BD000000D094464E4A97
:10345000926F9208624601D230E0C046F0B54A4E03
:10346000B56F6D08FCD3346E756E776F366F00F0F4
:1034700025F89446444A14665566576716676246AF
:10348000F0BDC0469446404A926F9208624601D20F
:1034900058E0C046F0B53C4EB56F6D08FCD3346EB5
:1034A000756E776F366F00F04DF89446364A1466A5
:1034B0005566576716676246F0BDC046002B24DB91
:1034C00011D000293EDA00B5C943404200D1013194
:1034D00000F038F8C943404200D10131DB43524289
:1034E00000D1013300BD002AEBD1002801D1002911
:1034F00005D00020C90FC90701D1C043410800B55C
:1035000001F086FD0022002300BD00B500290ADB82
:10351000DB43524200D1013300F014F8C94340426A
:1035200000D1013100BDC943404200D10131DB432C
:10353000524200D1013300F005F8DB43524200D182
:10354000013300BD002923D1002B18D1002A0CD053
:10355000BC460D4F38667A6600210023FFE7FFE77F
:10356000FFE77A6F386F67467047002801D0074839
:10357000010000B501F04CFD0022002300BD020057
:103580000B00002000217047000000D0FFFFFFFF6C
:10359000002B00D0BFE0130C28D1002AE7D080B464
:1035A000114F39667A66FFE7FFE730B4040C7B6F92
:1035B000396F1B0423433B667A66FFE7FFE7FFE7AB
:1035C000C04684B27B6F3D6F1B0423433B667A6623
:1035D000FFE7FFE7C04600232C042D0C7A6F386FFD
:1035E00000196941B0BC7047000000D0F0B59446A6
:1035F0000025140E01D112020835140F01D1120159
:103600000435940F01D192000235D40F01D152003C
:103610000135D40B0134254F7C66254C3C660E0CDD
:1036200093B2FFE7FFE7FFE73C6F6643360C770393
:10363000BE467343DF0B5B04C01AB941130C7343DE
:10364000DB18C91ACE086643360CB64493B27343EE
:103650001F0F1B01C01AB941130C73431F0B1B052D
:10366000C01AB941860D8F023E436643360C092DC0
:1036700024DB520A7243801A7703460A6643360CEB
:1036800016235B1BDE40DF40BF1964466643821B86
:103690007046043506330100D940A840C01900D354
:1036A0000131A24206D20023F0BD0000000000D08C
:1036B000FFFFFFFF121B0130F3D3F1E709277F1B48
:1036C000FE406446A2B27243801A00D20139220C35
:1036D0007243130C1204821A99410B007046043590
:1036E00013370100F940A840801900D30131002BA5
:1036F00002D1A2420AD2F0BD013000D30131121B27
:10370000FAD2013BF8D1A24200D2F0BD013000D381
:103710000131121BF7E7F0B51C0C00D080E00CB4AF
:1037200000251C0A04D11B02160E33431202083571
:103730001C0B04D11B01160F3343120104359C0BE3
:1037400004D19B00960F334392000235DC0B02D16B
:1037500092185B4101351C00971864410134464FB3
:103760007C66464C3C660E0CFFE7FFE7FFE7C04671
:103770003C6F6643360C7703BE4697B27743C01B57
:1037800000D20139C01B00D201399FB27743C91B57
:10379000C91B170C77437E04FF0B801BB941CE0871
:1037A0006643360C0C2D33DBB644120B1F053A432F
:1037B0001B0B97B27743C01B00D201399FB27743EE
:1037C000C91B170C77433E043F0C801BB941860D83
:1037D0008F023E43664329277F1BFE400C3D774600
:1037E000AF40BF1930BCA2B2ABB272437343801A70
:1037F0009941220C7243130C1204801A9941020061
:103800000B000137001BA941F9D2781E0021F0BD41
:103810000C277F1BFE4077467F0BAF40FF19E0E788
:1038200000245D1C07D0144F7D663966FFE7FFE773
:10383000FFE7FFE73C6F95B29EB265436643401BCE
:10384000B141150C1E0C6543664336042F0C3E43F4
:103850002D04401BB141994204D202000B0020000C
:103860000021F0BD01D19042F7D3801A9941013473
:103870009942F2D3F6E70000000000D0FFFFFFFFFF
:1038800048404140484018B41B4B5B68FC460193DC
:1038900008BD04DF5B3B001018B4174B1B68FC46E7
:1038A000019308BD00DF653B00109446134A926FF8
:1038B000920809D2624618B40F4BDB68FC460193AC
:1038C00008BD0CDF1D3E00100C4AF0B5146E556E9D
:1038D000576F166F6246FFF7EEFF084A146655668B
:1038E00057671667F0BD18B4034B9B68FC460193FD
:1038F00008BD08DFC13C0010F80C0020000000D01B
:10390000FFB550404240504059404B40594000E0C4
:10391000FFB5154F4C00640D03D0BC4204D10C031D
:1039200014D80020090D09055C00640D03D0BC42C9
:1039300004D11C030AD800221B0D1B0501264B4095
:1039400009D44B4003D58B4200D18242FFBD99423E
:10395000FCD19042FFBD0B43DB1803431343F5D06A
:10396000C9434918FFBD0000FF07000000B5FFF77D
:10397000CFFF804100BDC04600B5FFF7C9FF01D9A8
:10398000002000BD012000BD00B5FFF7B9FF01D93F
:10399000002000BD012000BD00B5FFF7B1FF804150
:1039A00000BD012040054A00121804D85A00121820
:1039B00001D80020704701207047002070470000A8
:1039C0000021002805D17047C1174840401AFAD09D
:1039D000C90713B5064B1B6898470CBC441CA24092
:1039E0001005120B0349091B09051943114310BDAA
:1039F000C40C00201F04000010B54C00620D802391
:103A0000D218DB00D21A5B057E2A10DD9E3A13DA4B
:103A1000CC170903490819435242D14064000134CC
:103A20001532202A05DAD0400843604310BD00203B
:103A300010BD0846604310BDC80FC018013810BD46
:103A400018B4044B5B6AFC46019308BD24DFCD3FEC
:103A500000100000F80C002070B513231C78012C16
:103A60000CD0012C13DC022C02DC1F4A1F4B9A6481
:103A70001F48FFF771FC1F4B186070BD00231F2B00
:103A8000EFD899001848194A88500133F7E71A48C7
:103A9000FFF76AFC05001948FFF766FC0238037857
:103AA0009B007F2B19DD80222900104800F0A4FB29
:103AB000022CD8D1124B1A88B5231B029A4209D185
:103AC000104B1A88104B9A4204D1104B1A88104B95
:103AD0009A42C8D00020FEF7BFF90E4B0E4A3221A1
:103AE0000E48FEF71FF9C046213B0010F80C0020DD
:103AF0004C330000C40C0020534400005346000027
:103B000054380000D8380000494600009C380000B6
:103B100059460000E85D0010985E0010485E0010F5
:103B200007B56046002800D100BE01880A0A0230AD
:103B3000DF2AFAD1C9B2820804D30288408800047F
:103B4000104300E00068024A5050039007BD000097
:103B5000F80C00200FB403BC0CBCF0B50124E40742
:103B6000634000E0F0B50C0DCF0F661E3605891BD3
:103B7000640503D3C943404200D30131640D03D02F
:103B8000661CF60A07D0E41B00207F00791C890719
:103B90008912803C24031D0DDF0F6E1E36059B1B12
:103BA0006D0503D3DB43524200D301336D0D03D0C7
:103BB0006E1CF60A07D0ED1B00227F007B1C9B07C2
:103BC0009B12803D2D032F1B661B58D4A446202E2C
:103BD00046DA20371400BC401D00BD40F24033419E
:103BE0002A4380185941CB0F05D0C943C043002256
:103BF00064425041514162464D0D28D10D0D07D10F
:103C000000281FD0241940414941013A0D0DF9D037
:103C1000640006D3013000D30131002C01D14008EB
:103C20004000013A0BD4941CE40A04D1120511445B
:103C3000DB071944F0BDD907204B194300E0D90731
:103C40000020F0BD0029DDD1002CDBD1F0BD013218
:103C5000C6074008CD0728434908002EE1D0D9E720
:103C60003C2E29DA203E40371400BC4000D001240D
:103C7000F24014431A00BB401C43D317ACE7AC46D8
:103C8000202F08DA20360400B4400D00B540F8407B
:103C900039412843A5E73C2F0CDA203F4036040089
:103CA000B44000D00124F84004430800B1400C4364
:103CB000C117EAE710001900002494E70000F07F24
:103CC000F0B50C0D661E3605891BE60A6405640D09
:103CD00002D0651CED0A04D0002001210905803CBA
:103CE0002403A4461C0D671E3F05DB1BE70A640581
:103CF000640D02D0651CED0A04D0002201231B05CF
:103D0000803C24037740644497B484B296B27443F1
:103D1000070C7E43150C6F4380B26843361802D3FC
:103D2000012000043F183004350C00197D41844601
:103D300088B29AB250430C0C62431F0C7C438EB283
:103D40007E43921902D301263604A4191604170CD7
:103D50003618674101BC81B29AB25143040C6243E8
:103D60001B0C5C4380B25843121802D3012000049C
:103D700024181004130C401863412D185E410020D4
:103D8000474106BC88B293B258430C0C6343120CF3
:103D9000544389B251435B1802D3012109046418CA
:103DA00019041A0C091862416D1856410020474148
:103DB00018BCF902720D1143F0026A0D1043ED02B6
:103DC0000A0D03D16D1940414941013B124E9B1B25
:103DD0007600B3420ED26D0007D301300026714148
:103DE0006646354301D1400840001B05C918E40769
:103DF0002144F0BD0BDA013306D1013004D1013189
:103E00004F0D01D04908F2E7E1070020F0BD01366F
:103E100031050020EBE70000FF030000F0B51C0DAA
:103E2000671E3F05DB1BE70A6405640D02D0661CB4
:103E3000F60A04D0002201231B05803C2403D02570
:103E40002D060026F6432E661E096E66CE0FF61965
:103E5000B44649004F0D02D07E1CF60A03D0002064
:103E60000021403F3F033E1BB600B444013F7F05A5
:103E7000C91B49082E6F013676089C02950D254313
:103E80007543ED137543AD1301356D10F603761BC5
:103E90000CB4CC02450D2C43A2B2B3B25A43270C4A
:103EA0007B43350C6F43A4B26C431B1902D301242E
:103EB00024043F191C041D0CA4187D4124196D41D4
:103EC000009A91B2ACB26143170C7C432B0C5F4358
:103ED00092B25A43A41802D301221204BF1822043A
:103EE000230C52187B41019C6C431B19520ED901C3
:103EF0000A434401A01A81B2B2B2514303145A4397
:103F0000360C734387B27743D617D21900277E4108
:103F100036049B191704160C7F185E417316ED18B2
:103F2000F301002680337541A90F06D16400690AA8
:103F3000E8055B0A184309D22FE004229444803339
:103F40007541A90AA8059B0A184326D34041494157
:103F50002404009A019B0D005543641B4343E41A5B
:103F600095B286B27543170C7E43030C5F4392B241
:103F70005A43B61802D301221204BF183204330C7C
:103F800052197B4152429C41002C02D40022013044
:103F900051414008CA071043490802B06246D7079A
:103FA0009210084BD218084B9A4203D21205891876
:103FB000C919F0BD0020002A01DC3900F0BD013331
:103FC0001905F5E7FD030000FE070000002200B51B
:103FD000203200F004F8080000BD000000220B159C
:103FE0000AD410B5944600F031F81414013400DA04
:103FF0000021CB17144C2047002000217047624459
:10400000343A0CD40C2A07DA040091409040524212
:104010002032D440214310BDD843D94310BD2032B3
:1040200007D40C469440524220321141D0402043E4
:1040300010BD0800C917203203D45242203210416B
:1040400010BD1800190010BDFF3F00100A0DCC0F65
:10405000531E1B05C91A520503D3C943404200D35E
:104060000131520D03D0531CDB0A07D0121B002074
:104070006400611C89078912803A1203014BD21A2D
:1040800070470000FF03000070B513231D782A4815
:10409000FFF76AF90400012D11D0012D09DDA31EDF
:1040A0001B789B007F2B40DD80222100234800F0FD
:1040B000A3F82348FFF750F9224B186070BD542233
:1040C00001001E4800F098F81F4B1A881F4B9A42B7
:1040D0001CD1A7239B011A881D4B9A4216D11D4B58
:1040E0001A881D4B9A4211D11C4B1A8894239B01AC
:1040F0009A420BD11A4B1A881A4B9A4206D11A4B84
:104100001A681A4B9A4201D1152307E01848FDF7A7
:10411000A3FE99001748094A885001331F2BF8D98C
:10412000144A064B1A62DA61B7E7134B134A42216D
:104130001348FDF7F7FDC04653460000F80D002078
:104140004C330000C40C0020EE290000C40F000016
:10415000C20D0000962B0000C0B50000182B000017
:10416000CC2A000010B50000FC2C000051ED876443
:104170001859001085410010AC5E0010305F00102F
:10418000E05E001007B56046002800D100BE01883F
:104190000A0A0230DF2AFAD1C9B2820804D302889F
:1041A00040880004104300E00068024A5050039029
:1041B00007BD0000F80D002010B50C0000F094FAC7
:1041C000002804D00419034B9C4200D810BD0248BB
:1041D000FDF742FE00000420445F00100148042166
:1041E000014B18474002002079330010014B1B6837
:1041F0001847000040020020014B5B681847000090
:104200004002002010B50300080011001B68984709
:1042100010BD0000F8B507000D001600437C002B10
:1042200002D0002400200CE0036811002800984709
:104230002DE03B7C10E0022115483B689847601C4C
:104240000134B44214DA002CF3DD2B19013B1B7846
:104250000D3B5A425341DBB22A5D0A2AF0D1002BB2
:10426000EED1A042E7DA211A28183B689847E2E726
:10427000B04203DA311A28183B689847002E06DD51
:10428000AD19013D2B780D3B5A4253413B74F8BDAB
:104290004460001070B505000368002B16D00C4B6D
:1042A0001C6805E0290004C92000FFF7B3FFE4689B
:1042B000002C09D02368002BF9D0064B1B68002B7B
:1042C000F0D0A342F3D1EDE700232B6070BDC046D0
:1042D000900C0020940C002070B505000C000B68B9
:1042E000802B05D021684B1C23606418257170BD9C
:1042F0000800FFF7CFFFF5E7F0B583B007000E0029
:104300000092019328E0A368002B04D0310038000C
:104310009847002827DCE468002C06D0134B1D6862
:10432000002DF0D0A542F6D1EDE70099019A104B8F
:104330005B6A9A4209D80E48806A88420FD29A4234
:1043400001D0012302E0002300E00023002B08D16C
:1043500001200021FDF758F8064B1C68DCE701231B
:10436000F4E70120404203B0F0BDC046940C0020A9
:1043700000400540900C002010B582B0D0231B06F1
:1043800000241C5701A9074800F052FE002806D15E
:10439000019B9C4203D0034800F052FE012002B072
:1043A00010BDC046A80A002010B5024800F028FE43
:1043B00010BDC046A80A0020F0B5CE46474680B5DD
:1043C00083B006000D0090461C00FFF7D5FF814624
:1043D0006B1C05D0002C08D0194F1A4B1C6807E045
:1043E000300000F097FC0500F4E7174FF5E7E468AC
:1043F000002C17D02368002BF9D0144B1B68002B1E
:1044000001D0A342F3D12A0031002000B84743462F
:10441000002BECD06B46D91D0A230B700122200023
:10442000B847E4E74B46002B07D1681E8541E8B248
:1044300003B00CBC90469946F0BDFFF7B5FFF4E71A
:1044400005420010900C002015420010940C002032
:1044500010B582B004006B46D81D04700023002202
:104460000121FFF7A9FF200002B010BD094A13681F
:10447000002B0BD0834202D00C331A00F7E700293F
:1044800007D1C36813600023C36002E0002900D095
:1044900010607047900C002010B5064B1C6800E0BF
:1044A000E468002C04D06368002BF9D09847F7E744
:1044B00010BDC046900C002070B5050000F02AFC2D
:1044C00004000023012201002800FFF775FFFFF719
:1044D000E3FF200070BD000070B5A2B004000E0024
:1044E000FFF74AFF05008422002101A8FFF77EFEA6
:1044F0003300220001A90848FEF716FF040001A8B6
:10450000FFF7C8FEFFF7C8FF002D02D1200022B040
:1045100070BDFFF749FFF9E7D94200100FB400B5AD
:1045200083B004A901C90191FFF7D6FF03B008BC0D
:1045300004B0184710B500F0C3F810BD30B583B013
:1045400004000025FCF742FF02000B1E16DB1219C7
:104550006B41994202D804D1904202D901225242C1
:10456000D317002B10DB012101A8FFF7C5FE00289F
:1045700002DB0FD001AB187803B030BD094B0A4AFB
:104580003F210A48FDF7CEFB064B074A3F2107486B
:10459000FDF7C8FB9521064B064A49000648FDF782
:1045A000C1FBC0464854001018600010645400104D
:1045B0001460001030600010CC5F0010F0B583B0C4
:1045C00000251AE06B4607330D241C70002403E01D
:1045D0001F78176001340133002C1CD19769BF0686
:1045E000FCD4F5E71E78166001340133002C03D1AA
:1045F0009669B606FCD4F5E701358D4210DA094B11
:104600001A68465D084BD3185C4263415B00074C57
:104610001B5FB342D6D06B4607331E700024E5E71C
:1046200003B0F0BDDC0C00200080FCBFF40C0020C7
:10463000F0B583B0070000200DE09369DB06FCD4E1
:1046400013682B7001340135002CF6D06B4607330C
:104650001B780370300088420CDA094B1A689369A2
:1046600010252C001C401D4204D1461C38186B46F6
:10467000DD1DE9E7002801D003B0F0BD0338FBE7FA
:10468000DC0C002070B515001C000B4B1860FDF70A
:10469000E7FA002D06DA002C09DA01210748FFF7B6
:1046A000E5FE70BD02212800FBF722FFF3E702219F
:1046B0002000FBF71DFFF0E7DC0C0020500200207B
:1046C00010B5064B1B78064B1B78E1210123002215
:1046D00049020448FFF7D6FF10BDC046A86100108C
:1046E000AC6100100040034010B5044B0A001B6889
:1046F0000100180000F004F810BDC0466802002058
:1047000010B5514300F02AF8041E0ED00300083BF8
:104710005A6803239A43043A242A15D80300132A1B
:1047200005D800221A605A609A60200010BD00214E
:104730000833016041601B2AF3D98160C160242ADB
:1047400006D003001033ECE70021FFF74FFDECE744
:104750000300016118334161E3E7C046F0B55746F5
:104760004546DE464E46E0B50D000B3583B00700EA
:10477000162D22D8102900D9BBE000F0B5FA10257B
:1047800018230220D14EF3181A005C68083A9442AC
:1047900000D1BEE0032362689A431300E268A16877
:1047A000CA6091600122E318596838000A435A60D0
:1047B00000F09CFA200008309EE007239D4300D5BE
:1047C00097E0A94200D994E000F08EFAF823FF3375
:1047D0009D4200D8ADE1680A00D194E0042800D9D8
:1047E00080E138239846A80980443930C100B74E8B
:1047F00071180839CC68A14218D0032362689A4323
:104800001300521B0F2A00DD36E1002AC6DA03230B
:104810009C4608E06246636893435A1B0F2A00DDFA
:104820002AE1002ABADAE468A142F3D132003469FD
:104830000832944200D177E00323616899438946A6
:104840000B00491B0F2900DD77E1726132610029FD
:10485000A8DA9F4A914500D910E1DA0801239110A6
:104860008B40D200716892190B4391687360E260CB
:10487000A1609460CC60012182109140994259D886
:104880000B4205D103229043490004300B42FBD078
:1048900003239846C3009946B144CC4682466346FA
:1048A000DC68A44507D129E1002A00DB32E1E46895
:1048B000A44500D122E14246636893435A1B0F2A64
:1048C000F2DD01208046611905436560A068E56856
:1048D0000836C560A8604046F160B160104348608A
:1048E000CE608E603800E25000F000FA2000083000
:1048F00002E00C2300203B6003B03CBC904699468C
:10490000A246AB46F0BD80213F2389004020984657
:104910006DE7DC680230A34200D03BE73200346927
:104920000832944200D087E70121736882109140D9
:104930009942A5D90323B46862689A439046AA4273
:1049400003D3531B0F2B00DD88E023004344614A4F
:104950000193614B93469A4612681B68EB1801322B
:1049600000D139E15D4A944663441B0B1B0300935D
:104970000099380000F0BCF903008146013300D1F2
:10498000F6E0019B834200D9F0E051464968009B64
:104990008C46514663444B6001991A00494500D149
:1049A0004FE15B461B68013300D154E14B4601994E
:1049B0005B1A9A1853465A6007234A461A400192D6
:1049C00000D113E108214B4689469B1A994400996E
:1049D000434B49449B1A5B1A1B051B0D0091380081
:1049E00019009B4600F084F9431C00D14FE14B466F
:1049F000C01A03005B440093534652465B68012192
:104A00005B4453604A464846B260009A0A4342609B
:104A1000B44200D123E142460F2A00D821E1072009
:104A20000C3A824360680140052011436160A1187F
:104A3000486088600F2A00D934E14A464C465268E3
:104A40005146C96A994201D25146CB625146096B1F
:104A5000994200D38EE051460B638BE0012229007E
:104A600013431143651961603800B5606B6000F055
:104A70003DF9200008303FE74046D7E65A0A042AAD
:104A80006ED9142A00D9C1E011005C325B31D2002A
:104A900008235B429C46B218944463469A680323F9
:104AA0009846944500D19AE0434651689943494558
:104AB00002D992689445F7D1D3689C4673686146E1
:104AC000A260E1608C60D460D5E6C046A0060020FC
:104AD000FF01000098060020E40B00200F100000EA
:104AE00008100000142852D9542800D996E06E23EB
:104AF0009846280B80446F30C10078E608239B4617
:104B0000073BDC449B46DA4443465246134200D0FE
:104B1000C5E64CE00122E318596838000A435A60A0
:104B2000E368A268D3609A6000F0E0F820000830E3
:104B3000E2E62B00E808083324E6012360191D4350
:104B4000656070613061C26082601A004B460A4342
:104B500042603800E15000F0C9F820000830CBE690
:104B60009A09110039323831D20091E7B44260D04D
:104B7000B468626803239A43531BAA4202D30F2BE3
:104B800000DD6BE7380000F0B1F80020B4E65B23ED
:104B9000984680445C30C10029E608235B429C466D
:104BA000E1444B469B6801384B4500D097E04346B3
:104BB0000342F2D173688B4373604900994200D974
:104BC000B8E6002904D1B5E6042294464900E2443F
:104BD0000B42F9D050465DE610330093C8E68910C9
:104BE000023B8B4071680B43736068E7009B3800A1
:104BF0004B441B055B421B0D19009B4600F078F8E7
:104C0000431C00D0F3E600239B46F5E6542A2AD83D
:104C10001A0B11006F326E31D20039E7AA235B0004
:104C200098422AD8DD3B9846E80B80447830C10092
:104C3000DDE553465B68009A9C46534662445A60E1
:104C4000AFE6090500D0ACE6009AB46842440131F1
:104C50000A436260F4E65B464A461A60ACE64C469C
:104C6000EEE641608EE7AA2149008A4224D8DA0B99
:104C7000110078327731D2000AE71A4B984224D8D3
:104C80007C239846A80C80447D30C100AFE5009A93
:104C9000019B94464A46083B63449B1A00930023B9
:104CA0009B46A9E621003800083100F0B7F85346CA
:104CB000B4685B686268C3E60A498A420BD89A0CFA
:104CC00011007D327C31D200E2E6FE217E23890094
:104CD0007F2098468BE5FE227E219200D8E67368FD
:104CE0006BE7C046540500007047C0467047C04699
:104CF000002370B5064C050008002360FCF7F2FFA6
:104D0000431C00D070BD2368002BFBD02B60F9E75B
:104D1000F80E002010B5830727D00378002B26D08B
:104D20000300032102E01A78002A1CD001330B4251
:104D3000F9D119680F4A104C8A188A4322420FD1C0
:104D4000043319680B4A8A188A43224208D1043373
:104D50001968084A8A188A432242F1D000E00133D8
:104D60001A78002AFBD1181A10BD0300E1E70020D1
:104D7000FAE7C046FFFEFEFE80808080F8B50C009A
:104D80000600FFF7B1FF204FBB685D6803239D431A
:104D90001E4B2C1B9C466444240B1D4B013C2403DE
:104DA0009C4207DD00213000FFF7A2FFBB685B19C2
:104DB000984204D03000FFF799FF0020F8BD61420F
:104DC0003000FFF795FF431C0DD00122BB682D1B5F
:104DD00015435D600F4B30001A68141B1C60FFF711
:104DE00085FF0120EAE700213000FFF781FFBA6864
:104DF000831A0F2BDEDD08490968401A054908604F
:104E000001210B435360D5E7A0060020EF0F0000FF
:104E1000FF0F0000E80B002098060020F0B5D646F2
:104E20004F4646460500C0B50C1E5CD0FFF75CFF40
:104E3000210008394F6801243B000322A343C8180E
:104E400046689643B146664EB268824200D175E02C
:104E50004A464260821894463C4229D10F68C91BD9
:104E60008A68DB19904662465768082294462740B4
:104E7000B444BA46E04556D0CA68944642466746AE
:104E8000D7606246474697605246002A13D10122F6
:104E90004B44CF18BC468468524F1A43BC4200D1E1
:104EA0007AE0C068E06084604A606246136005E0B2
:104EB00057682742EBD01C434C6003604A4A934238
:104EC00016D8DB08FF3A9810FF3A82407068DB0082
:104ED000024372609E19B368CE608B60B160D96086
:104EE0002800FFF703FF1CBC90469946A246F0BD80
:104EF0005C0A042C3AD89C09200039343830E4008C
:104F00003419083CA268032794423ED05068B84345
:104F1000984202D992689442F8D1D468CC608A60F1
:104F2000A160D160DCE7002F55D1C2684B44806896
:104F30001C43C26090604C60CB50D1E74B443C4274
:104F400006D10A68891A88689B18CA68C26090608E
:104F500001221A434A60254AB16012689A42BFD8BA
:104F6000234B28001968FFF709FFB9E7142C07D96C
:104F7000542C19D81C0B20006F346E30E400BFE7AE
:104F800020005C345B30E400BAE7012380108340EA
:104F9000706803437360C1E7E160A1604A606246E4
:104FA000CC608C6013609BE7AA204000844205D847
:104FB000DC0B200078347730E400A1E70D48844210
:104FC00005D89C0C20007D347C30E40098E7FE245A
:104FD0007E20A40094E71C434C60036080E7C04639
:104FE000A0060020A8060020FF0100009C0600206B
:104FF000E40B002054050000F8B5C0460000000096
:1050000001B40248844601BC604700BF5101002042
:1050100001B40248844601BC604700BF9D010020E6
:1050200001B40248844601BC604700BF9D010020D6
:1050300001B40248844601BC604700BF090100205A
:1050400001B40248844601BC604700BFC100002093
:105050004661696C656420746F20616464207469C2
:105060006D6572000A4649464F2077617320667568
:105070006C6C000064656C7461203E3D202D323004
:1050800034382026262064656C7461203C3D203233
:1050900030343620262620212864656C7461202651
:1050A000203129002F686F6D652F746F6F722F4448
:1050B0006F776E6C6F6164732F7069636F2F7069A7
:1050C000636F2D73646B2F7372632F7270325F6323
:1050D0006F6D6D6F6E2F68617264776172655F6965
:1050E00072712F6972712E630000000021286465BF
:1050F0006C7461203E3E20313175290063757272F7
:10510000656E74203D3D205F5F756E68616E646CF6
:1051100065645F757365725F697271207C7C206362
:10512000757272656E74203D3D2068616E646C65B9
:10513000720000006972715F68616E6465725F631E
:105140006861696E5F667265655F736C6F745F68D6
:10515000656164203E3D203000000000767461628D
:105160006C655F68616E646C6572203D3D205F5FB9
:10517000756E68616E646C65645F757365725F6996
:1051800072710000212828282875696E7470747265
:105190005F7429767461626C655F68616E646C65CA
:1051A0007229202D20282875696E747074725F74BE
:1051B000296972715F68616E646C65725F636861B2
:1051C000696E5F736C6F747329202D2031292573EC
:1051D000697A656F66287374727563742069727179
:1051E0005F68616E646C65725F636861696E5F734E
:1051F0006C6F74292900000030783163203D3D2018
:10520000282A696E7374293E3E3131750000000012
:1052100021657863657074696F6E207C7C20657889
:1052200063657074696F6E203D3D206E756D202B37
:105230002031360066616C736500000069735F732E
:1052400068617265645F6972715F7261775F6861DE
:105250006E646C657228736C6F745F68616E646CE9
:1052600065722900657863657074696F6E0000006F
:10527000666F756E640000006972715F7365745FBC
:105280006578636C75736976655F68616E646C657B
:10529000720000006D616B655F6272616E63680031
:1052A000696E736572745F6272616E63685F616E6E
:1052B000645F6C696E6B00007265736F6C76655F1E
:1052C0006272616E636800006972715F72656D6F12
:1052D00076655F68616E646C657200006972715F0B
:1052E0006164645F7461696C5F746F5F6672656549
:1052F0005F6C69737400000072742D3E616C6172A2
:105300006D5F6964203D3D20696400002F686F6D0A
:10531000652F746F6F722F446F776E6C6F6164735B
:105320002F7069636F2F7069636F2D73646B2F73B8
:1053300072632F636F6D6D6F6E2F7069636F5F7433
:10534000696D652F74696D652E63000069642026A0
:1053500026206964203C3D20706F6F6C2D3E68658F
:1053600061702D3E6D61785F6E6F64657300000043
:10537000256C6C642028686920253032782900006B
:105380006964202626206964203C3D2068656170A0
:105390002D3E6D61785F6E6F646573002F686F6D71
:1053A000652F746F6F722F446F776E6C6F616473CB
:1053B0002F7069636F2F7069636F2D73646B2F7328
:1053C00072632F636F6D6D6F6E2F7069636F5F75A2
:1053D00074696C2F696E636C7564652F7069636F97
:1053E0002F7574696C2F70686561702E68000000FD
:1053F000706172656E745F69640000006368696C57
:10540000645F696400000000706172656E745F69BA
:105410006420213D206368696C645F69640000005A
:105420002170685F636F6E7461696E735F6E6F6425
:105430006528706F6F6C2D3E686561702C207265F9
:105440007573655F6964290075735F73696E636561
:105450005F626F6F74203C3D20494E5436345F4D7F
:10546000415800002F686F6D652F746F6F722F4465
:105470006F776E6C6F6164732F7069636F2F7069E3
:10548000636F2D73646B2F7372632F636F6D6D6F1A
:105490006E2F7069636F5F626173652F696E636CF5
:1054A0007564652F7069636F2F74797065732E68EA
:1054B0000000000072656D6F7665645F6964203D71
:1054C0003D206E6578745F696400000063616C6CF8
:1054D0006261636B00000000706F6F6C2D3E616C49
:1054E00061726D5F696E5F70726F67726573732052
:1054F0003D3D206D616B655F7075626C69635F69CE
:10550000642869645F686967682C206E6578745FD9
:10551000696429006964202626202170685F636F12
:105520006E7461696E735F6E6F6465286865617023
:105530002C2069642900000064656661756C745FE5
:10554000616C61726D5F706F6F6C5F696E697469B9
:10555000616C697A656428290000000075706461D7
:1055600074655F75735F73696E63655F626F6F7497
:105570000000000070685F6765745F6E6F646500AF
:1055800070685F6164645F6368696C645F6E6F64B8
:105590006500000070685F696E736572745F6E6F9E
:1055A0006465000070685F667265655F6E6F646554
:1055B000000000006765745F656E7472790000001A
:1055C0006765745F656E7472795F69645F68696747
:1055D00068000000616C61726D5F706F6F6C5F6777
:1055E00065745F64656661756C7400006164645F16
:1055F000616C61726D5F756E6465725F6C6F636B19
:1056000000000000616C61726D5F706F6F6C5F61B4
:105610006C61726D5F63616C6C6261636B00000052
:10562000726570656174696E675F74696D65725FDC
:1056300063616C6C6261636B0000000048617264BE
:105640007761726520616C61726D20256420616CE8
:10565000726561647920636C61696D656400000046
:1056600074696D65725F68772D3E696E747320266C
:10567000203175203C3C20616C61726D5F6E756DF0
:10568000000000002F686F6D652F746F6F722F44DC
:105690006F776E6C6F6164732F7069636F2F7069C1
:1056A000636F2D73646B2F7372632F7270325F633D
:1056B0006F6D6D6F6E2F68617264776172655F7474
:1056C000696D65722F74696D65722E63000000004C
:1056D0007570646174655F75735F73696E63655F30
:1056E000626F6F74000000006861726477617265B8
:1056F0005F616C61726D5F7365745F746172676521
:1057000074000000726F6F745F6964002F686F6DC2
:10571000652F746F6F722F446F776E6C6F61647357
:105720002F7069636F2F7069636F2D73646B2F73B4
:1057300072632F636F6D6D6F6E2F7069636F5F752E
:1057400074696C2F70686561702E63002170685FEA
:105750006765745F6E6F646528686561702C207280
:105760006F6F745F6964292D3E7369626C696E673F
:10577000000000002170685F6765745F6E6F64658C
:1057800028686561702C20726F6F745F6964292DC1
:105790003E706172656E74006E65775F7375625FEF
:1057A0007472656520213D20686561702D3E726FC1
:1057B0006F745F696400000070685F6765745F6E96
:1057C0006F64650070685F6164645F6368696C64DE
:1057D0005F6E6F646500000070685F72656D6F7664
:1057E000655F616E795F68656164000070685F7213
:1057F000656D6F76655F616E645F667265655F6E2D
:105800006F646500696E646578203C3D20712D3EB3
:10581000656C656D656E745F636F756E7400000016
:105820002F686F6D652F746F6F722F446F776E6C7A
:105830006F6164732F7069636F2F7069636F2D736D
:10584000646B2F7372632F636F6D6D6F6E2F706952
:10585000636F5F7574696C2F71756575652E630074
:10586000656C656D656E745F70747200746F7461E1
:105870006C0000002F686F6D652F746F6F722F447E
:105880006F776E6C6F6164732F7069636F2F7069CF
:10589000636F2D73646B2F7372632F636F6D6D6F06
:1058A0006E2F7069636F5F73796E632F6D757465AA
:1058B000782E63006D74782D3E636F72652E737061
:1058C000696E5F6C6F636B006C6F636B5F69735FB6
:1058D0006F776E65725F69645F76616C6964286D6D
:1058E00074782D3E6F776E65722900006D74782D87
:1058F0003E656E7465725F636F756E7400000000C4
:105900006D757465785F6578697400002C20667524
:105910006E6374696F6E3A200000000061737365F6
:105920007274696F6E2022257322206661696C652E
:10593000643A2066696C6520222573222C206C69EC
:105940006E65202564257325730A000031203D3DD6
:10595000202875696E747074725F74296C2D3E73A3
:1059600070696E5F6C6F636B000000002F686F6D75
:10597000652F746F6F722F446F776E6C6F616473F5
:105980002F7069636F2F7069636F2D73646B2F7352
:1059900072632F7270325F636F6D6D6F6E2F7069FF
:1059A000636F5F72756E74696D652F72756E746961
:1059B0006D652E63000000000A2A2A2A2050414EFD
:1059C0004943202A2A2A0A000A00000072756E74D0
:1059D000696D655F696E6974000000007372635FD2
:1059E00066726571203E3D206672657100000000A0
:1059F0002F686F6D652F746F6F722F446F776E6CA9
:105A00006F6164732F7069636F2F7069636F2D739B
:105A1000646B2F7372632F7270325F636F6D6D6F83
:105A20006E2F68617264776172655F636C6F636B20
:105A3000732F636C6F636B732E630000636C6F6313
:105A40006B5F636F6E6669677572650076636F5F23
:105A500066726571203E3D20285049434F5F504C8F
:105A60004C5F56434F5F4D494E5F465245515F4D27
:105A7000485A202A204D485A292026262076636F2E
:105A80005F66726571203C3D20285049434F5F504E
:105A90004C4C5F56434F5F4D41585F465245515FF6
:105AA0004D485A202A204D485A2900002F686F6D12
:105AB000652F746F6F722F446F776E6C6F616473B4
:105AC0002F7069636F2F7069636F2D73646B2F7311
:105AD00072632F7270325F636F6D6D6F6E2F6861CE
